{
  "_format": "hh-sol-artifact-1",
  "contractName": "WavePortal",
  "sourceName": "contracts/WavePortal.sol",
  "abi": [
    {
      "inputs": [],
      "stateMutability": "payable",
      "type": "constructor"
    },
    {
      "anonymous": false,
      "inputs": [
        {
          "indexed": true,
          "internalType": "address",
          "name": "from",
          "type": "address"
        },
        {
          "indexed": false,
          "internalType": "uint256",
          "name": "timestamp",
          "type": "uint256"
        },
        {
          "indexed": false,
          "internalType": "string",
          "name": "message",
          "type": "string"
        }
      ],
      "name": "NewWave",
      "type": "event"
    },
    {
      "anonymous": false,
      "inputs": [
        {
          "indexed": true,
          "internalType": "address",
          "name": "from",
          "type": "address"
        }
      ],
      "name": "Won",
      "type": "event"
    },
    {
      "inputs": [],
      "name": "getAllWaves",
      "outputs": [
        {
          "components": [
            {
              "internalType": "address",
              "name": "waver",
              "type": "address"
            },
            {
              "internalType": "string",
              "name": "message",
              "type": "string"
            },
            {
              "internalType": "uint256",
              "name": "timestamp",
              "type": "uint256"
            }
          ],
          "internalType": "struct WavePortal.Wave[]",
          "name": "",
          "type": "tuple[]"
        }
      ],
      "stateMutability": "view",
      "type": "function"
    },
    {
      "inputs": [],
      "name": "getTotalWaves",
      "outputs": [
        {
          "internalType": "uint256",
          "name": "",
          "type": "uint256"
        }
      ],
      "stateMutability": "view",
      "type": "function"
    },
    {
      "inputs": [
        {
          "internalType": "address",
          "name": "",
          "type": "address"
        }
      ],
      "name": "lastWavedAt",
      "outputs": [
        {
          "internalType": "uint256",
          "name": "",
          "type": "uint256"
        }
      ],
      "stateMutability": "view",
      "type": "function"
    },
    {
      "inputs": [],
      "name": "showWavers",
      "outputs": [],
      "stateMutability": "view",
      "type": "function"
    },
    {
      "inputs": [
        {
          "internalType": "string",
          "name": "_message",
          "type": "string"
        }
      ],
      "name": "wave",
      "outputs": [],
      "stateMutability": "nonpayable",
      "type": "function"
    }
  ],
  "bytecode": "0x60806040526200003360405180606001604052806025815260200162001963602591396200009f60201b620007ca1760201c565b60644442620000439190620002bd565b6200004f91906200035a565b6002819055506200006b426200014260201b620008631760201c565b62000081446200014260201b620008631760201c565b620000996002546200014260201b620008631760201c565b62000401565b6200013f81604051602401620000b6919062000260565b6040516020818303038152906040527f41304fac000000000000000000000000000000000000000000000000000000007bffffffffffffffffffffffffffffffffffffffffffffffffffffffff19166020820180517bffffffffffffffffffffffffffffffffffffffffffffffffffffffff8381831617835250505050620001e560201b60201c565b50565b620001e28160405160240162000159919062000284565b6040516020818303038152906040527ff5b1bba9000000000000000000000000000000000000000000000000000000007bffffffffffffffffffffffffffffffffffffffffffffffffffffffff19166020820180517bffffffffffffffffffffffffffffffffffffffffffffffffffffffff8381831617835250505050620001e560201b60201c565b50565b60008151905060006a636f6e736f6c652e6c6f679050602083016000808483855afa5050505050565b60006200021b82620002a1565b620002278185620002ac565b93506200023981856020860162000324565b6200024481620003f0565b840191505092915050565b6200025a816200031a565b82525050565b600060208201905081810360008301526200027c81846200020e565b905092915050565b60006020820190506200029b60008301846200024f565b92915050565b600081519050919050565b600082825260208201905092915050565b6000620002ca826200031a565b9150620002d7836200031a565b9250827fffffffffffffffffffffffffffffffffffffffffffffffffffffffffffffffff038211156200030f576200030e62000392565b5b828201905092915050565b6000819050919050565b60005b838110156200034457808201518184015260208101905062000327565b8381111562000354576000848401525b50505050565b600062000367826200031a565b915062000374836200031a565b925082620003875762000386620003c1565b5b828206905092915050565b7f4e487b7100000000000000000000000000000000000000000000000000000000600052601160045260246000fd5b7f4e487b7100000000000000000000000000000000000000000000000000000000600052601260045260246000fd5b6000601f19601f8301169050919050565b61155280620004116000396000f3fe608060405234801561001057600080fd5b50600436106100575760003560e01c8063433425f31461005c578063449d46c0146100665780639a2cdc0814610082578063a42a4663146100a0578063bd43a908146100d0575b600080fd5b6100646100ee565b005b610080600480360381019061007b9190610cde565b6101bf565b005b61008a610616565b60405161009791906110ab565b60405180910390f35b6100ba60048036038101906100b59190610cb5565b610661565b6040516100c791906110ab565b60405180910390f35b6100d8610679565b6040516100e59190610f62565b60405180910390f35b61012c6040518060400160405280600881526020017f0a5761766572733a0000000000000000000000000000000000000000000000008152506107ca565b60005b6001805490508110156101bc576101a960018281548110610179577f4e487b7100000000000000000000000000000000000000000000000000000000600052603260045260246000fd5b9060005260206000200160009054906101000a900473ffffffffffffffffffffffffffffffffffffffff166108fc565b80806101b4906112f4565b91505061012f565b50565b42601e600460003373ffffffffffffffffffffffffffffffffffffffff1673ffffffffffffffffffffffffffffffffffffffff1681526020019081526020016000205461020c91906111bd565b1061024c576040517f08c379a00000000000000000000000000000000000000000000000000000000081526004016102439061108b565b60405180910390fd5b42600460003373ffffffffffffffffffffffffffffffffffffffff1673ffffffffffffffffffffffffffffffffffffffff1681526020019081526020016000208190555060016000808282546102a291906111bd565b925050819055506102e96040518060400160405280601681526020017f257320776176656420772f206d657373616765202573000000000000000000008152503383610995565b600360405180606001604052803373ffffffffffffffffffffffffffffffffffffffff16815260200183815260200142815250908060018154018082558091505060019003906000526020600020906003020160009091909190915060008201518160000160006101000a81548173ffffffffffffffffffffffffffffffffffffffff021916908373ffffffffffffffffffffffffffffffffffffffff16021790555060208201518160010190805190602001906103a8929190610b95565b506040820151816002015550503373ffffffffffffffffffffffffffffffffffffffff167f5f7e16dc676677766a70e9c5628aa6c54ddb8b6e5188e2ae1e1f17f1ffbea71642836040516103fd9291906110c6565b60405180910390a26064600254424461041691906111bd565b61042091906111bd565b61042a919061133d565b60028190555061043942610863565b61044244610863565b6104836040518060400160405280601681526020017f52616e646f6d20232067656e6572617465643a20256400000000000000000000815250600254610a34565b603260025411610613576104cc6040518060400160405280600781526020017f257320776f6e210000000000000000000000000000000000000000000000000081525033610ad0565b600065b5e620f4800090504781111561051a576040517f08c379a00000000000000000000000000000000000000000000000000000000081526004016105119061104b565b60405180910390fd5b60003373ffffffffffffffffffffffffffffffffffffffff168260405161054090610f32565b60006040518083038185875af1925050503d806000811461057d576040519150601f19603f3d011682016040523d82523d6000602084013e610582565b606091505b50509050806105c6576040517f08c379a00000000000000000000000000000000000000000000000000000000081526004016105bd9061106b565b60405180910390fd5b8015610610573373ffffffffffffffffffffffffffffffffffffffff167ff4ec34d629bd19fe7c2b2142541d4574ed8b77466f7dc5acc7eb1e83ed66441a60405160405180910390a25b50505b50565b60006106596040518060400160405280601781526020017f5765206861766520256420746f74616c20776176657321000000000000000000815250600054610a34565b600054905090565b60046020528060005260406000206000915090505481565b60606003805480602002602001604051908101604052809291908181526020016000905b828210156107c157838290600052602060002090600302016040518060600160405290816000820160009054906101000a900473ffffffffffffffffffffffffffffffffffffffff1673ffffffffffffffffffffffffffffffffffffffff1673ffffffffffffffffffffffffffffffffffffffff16815260200160018201805461072690611291565b80601f016020809104026020016040519081016040528092919081815260200182805461075290611291565b801561079f5780601f106107745761010080835404028352916020019161079f565b820191906000526020600020905b81548152906001019060200180831161078257829003601f168201915b505050505081526020016002820154815250508152602001906001019061069d565b50505050905090565b610860816040516024016107de9190610f84565b6040516020818303038152906040527f41304fac000000000000000000000000000000000000000000000000000000007bffffffffffffffffffffffffffffffffffffffffffffffffffffffff19166020820180517bffffffffffffffffffffffffffffffffffffffffffffffffffffffff8381831617835250505050610b6c565b50565b6108f98160405160240161087791906110ab565b6040516020818303038152906040527ff5b1bba9000000000000000000000000000000000000000000000000000000007bffffffffffffffffffffffffffffffffffffffffffffffffffffffff19166020820180517bffffffffffffffffffffffffffffffffffffffffffffffffffffffff8381831617835250505050610b6c565b50565b610992816040516024016109109190610f47565b6040516020818303038152906040527f2c2ecbc2000000000000000000000000000000000000000000000000000000007bffffffffffffffffffffffffffffffffffffffffffffffffffffffff19166020820180517bffffffffffffffffffffffffffffffffffffffffffffffffffffffff8381831617835250505050610b6c565b50565b610a2f8383836040516024016109ad93929190610fd6565b6040516020818303038152906040527fe0e9ad4f000000000000000000000000000000000000000000000000000000007bffffffffffffffffffffffffffffffffffffffffffffffffffffffff19166020820180517bffffffffffffffffffffffffffffffffffffffffffffffffffffffff8381831617835250505050610b6c565b505050565b610acc8282604051602401610a4a92919061101b565b6040516020818303038152906040527f9710a9d0000000000000000000000000000000000000000000000000000000007bffffffffffffffffffffffffffffffffffffffffffffffffffffffff19166020820180517bffffffffffffffffffffffffffffffffffffffffffffffffffffffff8381831617835250505050610b6c565b5050565b610b688282604051602401610ae6929190610fa6565b6040516020818303038152906040527f319af333000000000000000000000000000000000000000000000000000000007bffffffffffffffffffffffffffffffffffffffffffffffffffffffff19166020820180517bffffffffffffffffffffffffffffffffffffffffffffffffffffffff8381831617835250505050610b6c565b5050565b60008151905060006a636f6e736f6c652e6c6f679050602083016000808483855afa5050505050565b828054610ba190611291565b90600052602060002090601f016020900481019282610bc35760008555610c0a565b82601f10610bdc57805160ff1916838001178555610c0a565b82800160010185558215610c0a579182015b82811115610c09578251825591602001919060010190610bee565b5b509050610c179190610c1b565b5090565b5b80821115610c34576000816000905550600101610c1c565b5090565b6000610c4b610c468461111b565b6110f6565b905082815260208101848484011115610c6357600080fd5b610c6e84828561124f565b509392505050565b600081359050610c8581611505565b92915050565b600082601f830112610c9c57600080fd5b8135610cac848260208601610c38565b91505092915050565b600060208284031215610cc757600080fd5b6000610cd584828501610c76565b91505092915050565b600060208284031215610cf057600080fd5b600082013567ffffffffffffffff811115610d0a57600080fd5b610d1684828501610c8b565b91505092915050565b6000610d2b8383610ec4565b905092915050565b610d3c81611213565b82525050565b610d4b81611213565b82525050565b6000610d5c8261115c565b610d66818561117f565b935083602082028501610d788561114c565b8060005b85811015610db45784840389528151610d958582610d1f565b9450610da083611172565b925060208a01995050600181019050610d7c565b50829750879550505050505092915050565b6000610dd182611167565b610ddb818561119b565b9350610deb81856020860161125e565b610df48161142a565b840191505092915050565b6000610e0a82611167565b610e1481856111ac565b9350610e2481856020860161125e565b610e2d8161142a565b840191505092915050565b6000610e456034836111ac565b9150610e508261143b565b604082019050919050565b6000610e686027836111ac565b9150610e738261148a565b604082019050919050565b6000610e8b600083611190565b9150610e96826114d9565b600082019050919050565b6000610eae6008836111ac565b9150610eb9826114dc565b602082019050919050565b6000606083016000830151610edc6000860182610d33565b5060208301518482036020860152610ef48282610dc6565b9150506040830151610f096040860182610f14565b508091505092915050565b610f1d81611245565b82525050565b610f2c81611245565b82525050565b6000610f3d82610e7e565b9150819050919050565b6000602082019050610f5c6000830184610d42565b92915050565b60006020820190508181036000830152610f7c8184610d51565b905092915050565b60006020820190508181036000830152610f9e8184610dff565b905092915050565b60006040820190508181036000830152610fc08185610dff565b9050610fcf6020830184610d42565b9392505050565b60006060820190508181036000830152610ff08186610dff565b9050610fff6020830185610d42565b81810360408301526110118184610dff565b9050949350505050565b600060408201905081810360008301526110358185610dff565b90506110446020830184610f23565b9392505050565b6000602082019050818103600083015261106481610e38565b9050919050565b6000602082019050818103600083015261108481610e5b565b9050919050565b600060208201905081810360008301526110a481610ea1565b9050919050565b60006020820190506110c06000830184610f23565b92915050565b60006040820190506110db6000830185610f23565b81810360208301526110ed8184610dff565b90509392505050565b6000611100611111565b905061110c82826112c3565b919050565b6000604051905090565b600067ffffffffffffffff821115611136576111356113fb565b5b61113f8261142a565b9050602081019050919050565b6000819050602082019050919050565b600081519050919050565b600081519050919050565b6000602082019050919050565b600082825260208201905092915050565b600081905092915050565b600082825260208201905092915050565b600082825260208201905092915050565b60006111c882611245565b91506111d383611245565b9250827fffffffffffffffffffffffffffffffffffffffffffffffffffffffffffffffff038211156112085761120761136e565b5b828201905092915050565b600061121e82611225565b9050919050565b600073ffffffffffffffffffffffffffffffffffffffff82169050919050565b6000819050919050565b82818337600083830152505050565b60005b8381101561127c578082015181840152602081019050611261565b8381111561128b576000848401525b50505050565b600060028204905060018216806112a957607f821691505b602082108114156112bd576112bc6113cc565b5b50919050565b6112cc8261142a565b810181811067ffffffffffffffff821117156112eb576112ea6113fb565b5b80604052505050565b60006112ff82611245565b91507fffffffffffffffffffffffffffffffffffffffffffffffffffffffffffffffff8214156113325761133161136e565b5b600182019050919050565b600061134882611245565b915061135383611245565b9250826113635761136261139d565b5b828206905092915050565b7f4e487b7100000000000000000000000000000000000000000000000000000000600052601160045260246000fd5b7f4e487b7100000000000000000000000000000000000000000000000000000000600052601260045260246000fd5b7f4e487b7100000000000000000000000000000000000000000000000000000000600052602260045260246000fd5b7f4e487b7100000000000000000000000000000000000000000000000000000000600052604160045260246000fd5b6000601f19601f8301169050919050565b7f547279696e6720746f207769746864726177206d6f7265206d6f6e657920746860008201527f616e2074686520636f6e7472616374206861732e000000000000000000000000602082015250565b7f4661696c656420746f207769746864726177206d6f6e65792066726f6d20636f60008201527f6e74726163742e00000000000000000000000000000000000000000000000000602082015250565b50565b7f576169742031356d000000000000000000000000000000000000000000000000600082015250565b61150e81611213565b811461151957600080fd5b5056fea26469706673582212205db1a53683d4692f76877d021290e4b9ed953586e04069b3f4bbbee5c4a9a7fe64736f6c63430008040033596f20796f2c204920616d206120636f6e747261637420616e64204920616d20736d617274",
  "linkReferences": {},
  "deployedLinkReferences": {}
}